{
  "_format": "hh-sol-artifact-1",
  "contractName": "userDB",
  "sourceName": "contracts/userDB.sol",
  "abi": [
    {
      "inputs": [
        {
          "internalType": "address",
          "name": "wallet",
          "type": "address"
        }
      ],
      "name": "removeUser",
      "outputs": [],
      "stateMutability": "nonpayable",
      "type": "function"
    },
    {
      "inputs": [
        {
          "internalType": "address",
          "name": "wallet",
          "type": "address"
        },
        {
          "internalType": "string",
          "name": "user",
          "type": "string"
        },
        {
          "internalType": "string",
          "name": "email",
          "type": "string"
        },
        {
          "internalType": "string",
          "name": "hashy",
          "type": "string"
        },
        {
          "internalType": "string",
          "name": "ci",
          "type": "string"
        }
      ],
      "name": "saveUser",
      "outputs": [],
      "stateMutability": "nonpayable",
      "type": "function"
    },
    {
      "inputs": [
        {
          "internalType": "address",
          "name": "wallet",
          "type": "address"
        },
        {
          "internalType": "uint256",
          "name": "option",
          "type": "uint256"
        },
        {
          "internalType": "string",
          "name": "data",
          "type": "string"
        }
      ],
      "name": "updateUser",
      "outputs": [],
      "stateMutability": "nonpayable",
      "type": "function"
    },
    {
      "inputs": [
        {
          "internalType": "address",
          "name": "",
          "type": "address"
        }
      ],
      "name": "wallets",
      "outputs": [
        {
          "internalType": "string",
          "name": "username",
          "type": "string"
        },
        {
          "internalType": "string",
          "name": "email",
          "type": "string"
        },
        {
          "internalType": "string",
          "name": "hash_hash",
          "type": "string"
        },
        {
          "internalType": "string",
          "name": "cid",
          "type": "string"
        }
      ],
      "stateMutability": "view",
      "type": "function"
    }
  ],
  "bytecode": "0x608060405234801561001057600080fd5b50610901806100206000396000f3fe608060405234801561001057600080fd5b506004361061004c5760003560e01c80634e3e31261461005157806355b4ad431461006657806389b08f111461007957806398575188146100a5575b600080fd5b61006461005f3660046105b6565b6100b8565b005b61006461007436600461060d565b610174565b61008c6100873660046106cb565b610210565b60405161009c9493929190610733565b60405180910390f35b6100646100b33660046106cb565b610458565b816000036100e8576001600160a01b03831660009081526020819052604090206100e2828261080b565b50505050565b81600103610115576001600160a01b03831660009081526020819052604090206001016100e2828261080b565b81600203610142576001600160a01b03831660009081526020819052604090206002016100e2828261080b565b8160030361016f576001600160a01b03831660009081526020819052604090206003016100e2828261080b565b505050565b6001600160a01b0385166000908152602081905260409020610196858261080b565b506001600160a01b03851660009081526020819052604090206001016101bc848261080b565b506001600160a01b03851660009081526020819052604090206002016101e2838261080b565b506001600160a01b0385166000908152602081905260409020600301610208828261080b565b505050505050565b60006020819052908152604090208054819061022b9061078b565b80601f01602080910402602001604051908101604052809291908181526020018280546102579061078b565b80156102a45780601f10610279576101008083540402835291602001916102a4565b820191906000526020600020905b81548152906001019060200180831161028757829003601f168201915b5050505050908060010180546102b99061078b565b80601f01602080910402602001604051908101604052809291908181526020018280546102e59061078b565b80156103325780601f1061030757610100808354040283529160200191610332565b820191906000526020600020905b81548152906001019060200180831161031557829003601f168201915b5050505050908060020180546103479061078b565b80601f01602080910402602001604051908101604052809291908181526020018280546103739061078b565b80156103c05780601f10610395576101008083540402835291602001916103c0565b820191906000526020600020905b8154815290600101906020018083116103a357829003601f168201915b5050505050908060030180546103d59061078b565b80601f01602080910402602001604051908101604052809291908181526020018280546104019061078b565b801561044e5780601f106104235761010080835404028352916020019161044e565b820191906000526020600020905b81548152906001019060200180831161043157829003601f168201915b5050505050905084565b6001600160a01b03811660009081526020819052604081209061047b82826104a1565b6104896001830160006104a1565b6104976002830160006104a1565b61016f6003830160005b5080546104ad9061078b565b6000825580601f106104bd575050565b601f0160209004906000526020600020908101906104db91906104de565b50565b5b808211156104f357600081556001016104df565b5090565b80356001600160a01b038116811461050e57600080fd5b919050565b634e487b7160e01b600052604160045260246000fd5b600082601f83011261053a57600080fd5b813567ffffffffffffffff8082111561055557610555610513565b604051601f8301601f19908116603f0116810190828211818310171561057d5761057d610513565b8160405283815286602085880101111561059657600080fd5b836020870160208301376000602085830101528094505050505092915050565b6000806000606084860312156105cb57600080fd5b6105d4846104f7565b925060208401359150604084013567ffffffffffffffff8111156105f757600080fd5b61060386828701610529565b9150509250925092565b600080600080600060a0868803121561062557600080fd5b61062e866104f7565b9450602086013567ffffffffffffffff8082111561064b57600080fd5b61065789838a01610529565b9550604088013591508082111561066d57600080fd5b61067989838a01610529565b9450606088013591508082111561068f57600080fd5b61069b89838a01610529565b935060808801359150808211156106b157600080fd5b506106be88828901610529565b9150509295509295909350565b6000602082840312156106dd57600080fd5b6106e6826104f7565b9392505050565b6000815180845260005b81811015610713576020818501810151868301820152016106f7565b506000602082860101526020601f19601f83011685010191505092915050565b60808152600061074660808301876106ed565b828103602084015261075881876106ed565b9050828103604084015261076c81866106ed565b9050828103606084015261078081856106ed565b979650505050505050565b600181811c9082168061079f57607f821691505b6020821081036107bf57634e487b7160e01b600052602260045260246000fd5b50919050565b601f82111561016f57600081815260208120601f850160051c810160208610156107ec5750805b601f850160051c820191505b81811015610208578281556001016107f8565b815167ffffffffffffffff81111561082557610825610513565b61083981610833845461078b565b846107c5565b602080601f83116001811461086e57600084156108565750858301515b600019600386901b1c1916600185901b178555610208565b600085815260208120601f198616915b8281101561089d5788860151825594840194600190910190840161087e565b50858210156108bb5787850151600019600388901b60f8161c191681555b5050505050600190811b0190555056fea2646970667358221220a75887f5bbe59c502348b7c79247d5239c199dba4b5d923a7a7efd8d06fc59b364736f6c63430008130033",
  "linkReferences": {},
  "deployedLinkReferences": {}
}